{
  "transactions": [
    {
      "hash": "0x132b3c546c643cdf9dfe3001f450b54b3128c3cb60b023943d1693d4096c3b10",
      "transactionType": "CREATE",
      "contractName": "Counter",
      "contractAddress": "0xa51c1fc2f0d1a1b8494ed1fe312d7c3a78ed91c0",
      "function": null,
      "arguments": null,
      "transaction": {
        "from": "0xf39fd6e51aad88f6f4ce6ab8827279cfffb92266",
        "gas": "0x364b8",
        "value": "0x0",
        "input": "0x6080604052348015600e575f5ffd5b505f5f81905550610218806100225f395ff3fe608060405234801561000f575f5ffd5b506004361061003f575f3560e01c80633fb5c1cb146100435780638381f58a1461005f578063d09de08a1461007d575b5f5ffd5b61005d6004803603810190610058919061011b565b610087565b005b6100676100c7565b6040516100749190610155565b60405180910390f35b6100856100cc565b005b805f819055507f9ec8254969d1974eac8c74afb0c03595b4ffe0a1d7ad8a7f82ed31b9c8542591816040516100bc9190610155565b60405180910390a150565b5f5481565b5f5f8154809291906100dd9061019b565b9190505550565b5f5ffd5b5f819050919050565b6100fa816100e8565b8114610104575f5ffd5b50565b5f81359050610115816100f1565b92915050565b5f602082840312156101305761012f6100e4565b5b5f61013d84828501610107565b91505092915050565b61014f816100e8565b82525050565b5f6020820190506101685f830184610146565b92915050565b7f4e487b71000000000000000000000000000000000000000000000000000000005f52601160045260245ffd5b5f6101a5826100e8565b91507fffffffffffffffffffffffffffffffffffffffffffffffffffffffffffffffff82036101d7576101d661016e565b5b60018201905091905056fea2646970667358221220e4491ae70924e030e141e0f6214206059167a5e0c97bba602223f2f84819d82c64736f6c63430008210033",
        "nonce": "0xc",
        "chainId": "0x7a69"
      },
      "additionalContracts": [],
      "isFixedGasLimit": false
    },
    {
      "hash": "0x1a08713e369013d2d9fe41bead94d4f1b8c15e6a0727c6c80b25dc9cf46256ec",
      "transactionType": "CALL",
      "contractName": "Counter",
      "contractAddress": "0xa51c1fc2f0d1a1b8494ed1fe312d7c3a78ed91c0",
      "function": "setNumber(uint256)",
      "arguments": [
        "10"
      ],
      "transaction": {
        "from": "0xf39fd6e51aad88f6f4ce6ab8827279cfffb92266",
        "to": "0xa51c1fc2f0d1a1b8494ed1fe312d7c3a78ed91c0",
        "gas": "0xf22b",
        "value": "0x0",
        "input": "0x3fb5c1cb000000000000000000000000000000000000000000000000000000000000000a",
        "nonce": "0xd",
        "chainId": "0x7a69"
      },
      "additionalContracts": [],
      "isFixedGasLimit": false
    },
    {
      "hash": "0xae4b69ce9365c5083ecd4b216bba580d29e1bde5eb7eb3447f2168410454c148",
      "transactionType": "CALL",
      "contractName": "Counter",
      "contractAddress": "0xa51c1fc2f0d1a1b8494ed1fe312d7c3a78ed91c0",
      "function": "increment()",
      "arguments": [],
      "transaction": {
        "from": "0xf39fd6e51aad88f6f4ce6ab8827279cfffb92266",
        "to": "0xa51c1fc2f0d1a1b8494ed1fe312d7c3a78ed91c0",
        "gas": "0x8e57",
        "value": "0x0",
        "input": "0xd09de08a",
        "nonce": "0xe",
        "chainId": "0x7a69"
      },
      "additionalContracts": [],
      "isFixedGasLimit": false
    }
  ],
  "receipts": [
    {
      "status": "0x1",
      "cumulativeGasUsed": "0x29c3f",
      "logs": [],
      "logsBloom": "0x00000000000000000000000000000000000000000000000000000000000000000000000000000000000000000000000000000000000000000000000000000000000000000000000000000000000000000000000000000000000000000000000000000000000000000000000000000000000000000000000000000000000000000000000000000000000000000000000000000000000000000000000000000000000000000000000000000000000000000000000000000000000000000000000000000000000000000000000000000000000000000000000000000000000000000000000000000000000000000000000000000000000000000000000000000000",
      "type": "0x2",
      "transactionHash": "0x132b3c546c643cdf9dfe3001f450b54b3128c3cb60b023943d1693d4096c3b10",
      "transactionIndex": "0x0",
      "blockHash": "0x9ab6cc95bb41547553da4415ad18489331e5fb4fce829605e761a795d30debd2",
      "blockNumber": "0xd",
      "gasUsed": "0x29c3f",
      "effectiveGasPrice": "0xc25dfd4",
      "blobGasPrice": "0x1",
      "from": "0xf39fd6e51aad88f6f4ce6ab8827279cfffb92266",
      "to": null,
      "contractAddress": "0xa51c1fc2f0d1a1b8494ed1fe312d7c3a78ed91c0"
    },
    {
      "status": "0x1",
      "cumulativeGasUsed": "0xaf54",
      "logs": [
        {
          "address": "0xa51c1fc2f0d1a1b8494ed1fe312d7c3a78ed91c0",
          "topics": [
            "0x9ec8254969d1974eac8c74afb0c03595b4ffe0a1d7ad8a7f82ed31b9c8542591"
          ],
          "data": "0x000000000000000000000000000000000000000000000000000000000000000a",
          "blockHash": "0x00face90dfb7ccffbfe89cb8b42c33dc66c2257dab50ff729a5461d05c162989",
          "blockNumber": "0xe",
          "blockTimestamp": "0x6967a25a",
          "transactionHash": "0x1a08713e369013d2d9fe41bead94d4f1b8c15e6a0727c6c80b25dc9cf46256ec",
          "transactionIndex": "0x0",
          "logIndex": "0x0",
          "removed": false
        }
      ],
      "logsBloom": "0x00000000000000000000000000000000000000000000000000000000000000000000000000000000000000000000000000000000000000000000000000000000004000000000000000000000000000000000000000000000000000000000000000000000000000000000000000000000000000000000000000000020000000000000000000000000000000000100000000000000000400000000000000000000000000000000000000000000000000000000000000000000000000000000000000000000000000000000000000000000000000000000000000000000000000000000000000000000000000000002000000000000000000000000400000000000",
      "type": "0x2",
      "transactionHash": "0x1a08713e369013d2d9fe41bead94d4f1b8c15e6a0727c6c80b25dc9cf46256ec",
      "transactionIndex": "0x0",
      "blockHash": "0x00face90dfb7ccffbfe89cb8b42c33dc66c2257dab50ff729a5461d05c162989",
      "blockNumber": "0xe",
      "gasUsed": "0xaf54",
      "effectiveGasPrice": "0xaa592ce",
      "blobGasPrice": "0x1",
      "from": "0xf39fd6e51aad88f6f4ce6ab8827279cfffb92266",
      "to": "0xa51c1fc2f0d1a1b8494ed1fe312d7c3a78ed91c0",
      "contractAddress": null
    },
    {
      "status": "0x1",
      "cumulativeGasUsed": "0x11662",
      "logs": [],
      "logsBloom": "0x00000000000000000000000000000000000000000000000000000000000000000000000000000000000000000000000000000000000000000000000000000000000000000000000000000000000000000000000000000000000000000000000000000000000000000000000000000000000000000000000000000000000000000000000000000000000000000000000000000000000000000000000000000000000000000000000000000000000000000000000000000000000000000000000000000000000000000000000000000000000000000000000000000000000000000000000000000000000000000000000000000000000000000000000000000000",
      "type": "0x2",
      "transactionHash": "0xae4b69ce9365c5083ecd4b216bba580d29e1bde5eb7eb3447f2168410454c148",
      "transactionIndex": "0x1",
      "blockHash": "0x00face90dfb7ccffbfe89cb8b42c33dc66c2257dab50ff729a5461d05c162989",
      "blockNumber": "0xe",
      "gasUsed": "0x670e",
      "effectiveGasPrice": "0xaa592ce",
      "blobGasPrice": "0x1",
      "from": "0xf39fd6e51aad88f6f4ce6ab8827279cfffb92266",
      "to": "0xa51c1fc2f0d1a1b8494ed1fe312d7c3a78ed91c0",
      "contractAddress": null
    }
  ],
  "libraries": [],
  "pending": [],
  "returns": {},
  "timestamp": 1768399450457,
  "chain": 31337,
  "commit": "a24b38b"
}