{
  "transactions": [
    {
      "hash": "0x5c66f7af7ca9539cc56a2b44f8704a0e19bb8a798aeddaea14585fb10aaa903b",
      "transactionType": "CREATE",
      "contractName": "Counter",
      "contractAddress": "0x0165878a594ca255338adfa4d48449f69242eb8f",
      "function": null,
      "arguments": null,
      "transaction": {
        "from": "0xf39fd6e51aad88f6f4ce6ab8827279cfffb92266",
        "gas": "0x364b8",
        "value": "0x0",
        "input": "0x6080604052348015600e575f5ffd5b505f5f81905550610218806100225f395ff3fe608060405234801561000f575f5ffd5b506004361061003f575f3560e01c80633fb5c1cb146100435780638381f58a1461005f578063d09de08a1461007d575b5f5ffd5b61005d6004803603810190610058919061011b565b610087565b005b6100676100c7565b6040516100749190610155565b60405180910390f35b6100856100cc565b005b805f819055507f9ec8254969d1974eac8c74afb0c03595b4ffe0a1d7ad8a7f82ed31b9c8542591816040516100bc9190610155565b60405180910390a150565b5f5481565b5f5f8154809291906100dd9061019b565b9190505550565b5f5ffd5b5f819050919050565b6100fa816100e8565b8114610104575f5ffd5b50565b5f81359050610115816100f1565b92915050565b5f602082840312156101305761012f6100e4565b5b5f61013d84828501610107565b91505092915050565b61014f816100e8565b82525050565b5f6020820190506101685f830184610146565b92915050565b7f4e487b71000000000000000000000000000000000000000000000000000000005f52601160045260245ffd5b5f6101a5826100e8565b91507fffffffffffffffffffffffffffffffffffffffffffffffffffffffffffffffff82036101d7576101d661016e565b5b60018201905091905056fea2646970667358221220e4491ae70924e030e141e0f6214206059167a5e0c97bba602223f2f84819d82c64736f6c63430008210033",
        "nonce": "0x6",
        "chainId": "0x7a69"
      },
      "additionalContracts": [],
      "isFixedGasLimit": false
    },
    {
      "hash": "0xd422042f23f701a40dfb0d3689654502ca5f7cad04c48f24cd8a2695961f0463",
      "transactionType": "CALL",
      "contractName": "Counter",
      "contractAddress": "0x0165878a594ca255338adfa4d48449f69242eb8f",
      "function": "setNumber(uint256)",
      "arguments": [
        "10"
      ],
      "transaction": {
        "from": "0xf39fd6e51aad88f6f4ce6ab8827279cfffb92266",
        "to": "0x0165878a594ca255338adfa4d48449f69242eb8f",
        "gas": "0xf22b",
        "value": "0x0",
        "input": "0x3fb5c1cb000000000000000000000000000000000000000000000000000000000000000a",
        "nonce": "0x7",
        "chainId": "0x7a69"
      },
      "additionalContracts": [],
      "isFixedGasLimit": false
    },
    {
      "hash": "0xf97f3466c3f69dc8569f8bb9feb76567b14cc390f64c6c135b747b375a2383a7",
      "transactionType": "CALL",
      "contractName": "Counter",
      "contractAddress": "0x0165878a594ca255338adfa4d48449f69242eb8f",
      "function": "increment()",
      "arguments": [],
      "transaction": {
        "from": "0xf39fd6e51aad88f6f4ce6ab8827279cfffb92266",
        "to": "0x0165878a594ca255338adfa4d48449f69242eb8f",
        "gas": "0x8e57",
        "value": "0x0",
        "input": "0xd09de08a",
        "nonce": "0x8",
        "chainId": "0x7a69"
      },
      "additionalContracts": [],
      "isFixedGasLimit": false
    }
  ],
  "receipts": [
    {
      "status": "0x1",
      "cumulativeGasUsed": "0x29c3f",
      "logs": [],
      "logsBloom": "0x00000000000000000000000000000000000000000000000000000000000000000000000000000000000000000000000000000000000000000000000000000000000000000000000000000000000000000000000000000000000000000000000000000000000000000000000000000000000000000000000000000000000000000000000000000000000000000000000000000000000000000000000000000000000000000000000000000000000000000000000000000000000000000000000000000000000000000000000000000000000000000000000000000000000000000000000000000000000000000000000000000000000000000000000000000000",
      "type": "0x2",
      "transactionHash": "0x5c66f7af7ca9539cc56a2b44f8704a0e19bb8a798aeddaea14585fb10aaa903b",
      "transactionIndex": "0x0",
      "blockHash": "0x372e0e1614ee04a464550ac3f41cbebf76773816e07631931b68a36cda54520e",
      "blockNumber": "0x7",
      "gasUsed": "0x29c3f",
      "effectiveGasPrice": "0x1af17d7f",
      "blobGasPrice": "0x1",
      "from": "0xf39fd6e51aad88f6f4ce6ab8827279cfffb92266",
      "to": null,
      "contractAddress": "0x0165878a594ca255338adfa4d48449f69242eb8f"
    },
    {
      "status": "0x1",
      "cumulativeGasUsed": "0xaf54",
      "logs": [
        {
          "address": "0x0165878a594ca255338adfa4d48449f69242eb8f",
          "topics": [
            "0x9ec8254969d1974eac8c74afb0c03595b4ffe0a1d7ad8a7f82ed31b9c8542591"
          ],
          "data": "0x000000000000000000000000000000000000000000000000000000000000000a",
          "blockHash": "0x72e171833d7b3419039c66f76d2d5f746d0741f4d80fd3199ae695ab145db1a2",
          "blockNumber": "0x8",
          "blockTimestamp": "0x69679eae",
          "transactionHash": "0xd422042f23f701a40dfb0d3689654502ca5f7cad04c48f24cd8a2695961f0463",
          "transactionIndex": "0x0",
          "logIndex": "0x0",
          "removed": false
        }
      ],
      "logsBloom": "0x00000000000000000000000000000000000000000000000000000000000000000000000000000000000000000000000000000000000000000000000000000000005000000000000000000000000000000000000000000000000000000000000000000000000000000000000000000000000000000000000000000020000000040000000000000000000000000100000000000000000000000000000000000000000000000000000000000000000000000000000000000000000000000000000000000004000000000000000000000000000000000000000000000000000000000000000000000000000000000000000000000000000000000000000000000000",
      "type": "0x2",
      "transactionHash": "0xd422042f23f701a40dfb0d3689654502ca5f7cad04c48f24cd8a2695961f0463",
      "transactionIndex": "0x0",
      "blockHash": "0x72e171833d7b3419039c66f76d2d5f746d0741f4d80fd3199ae695ab145db1a2",
      "blockNumber": "0x8",
      "gasUsed": "0xaf54",
      "effectiveGasPrice": "0x179d2310",
      "blobGasPrice": "0x1",
      "from": "0xf39fd6e51aad88f6f4ce6ab8827279cfffb92266",
      "to": "0x0165878a594ca255338adfa4d48449f69242eb8f",
      "contractAddress": null
    },
    {
      "status": "0x1",
      "cumulativeGasUsed": "0x670e",
      "logs": [],
      "logsBloom": "0x00000000000000000000000000000000000000000000000000000000000000000000000000000000000000000000000000000000000000000000000000000000000000000000000000000000000000000000000000000000000000000000000000000000000000000000000000000000000000000000000000000000000000000000000000000000000000000000000000000000000000000000000000000000000000000000000000000000000000000000000000000000000000000000000000000000000000000000000000000000000000000000000000000000000000000000000000000000000000000000000000000000000000000000000000000000",
      "type": "0x2",
      "transactionHash": "0xf97f3466c3f69dc8569f8bb9feb76567b14cc390f64c6c135b747b375a2383a7",
      "transactionIndex": "0x0",
      "blockHash": "0x6ad64d0e19f5d13b1510dfa9dbb6c2866a445198bb0763635f83b562cb598c22",
      "blockNumber": "0x9",
      "gasUsed": "0x670e",
      "effectiveGasPrice": "0x14abc185",
      "blobGasPrice": "0x1",
      "from": "0xf39fd6e51aad88f6f4ce6ab8827279cfffb92266",
      "to": "0x0165878a594ca255338adfa4d48449f69242eb8f",
      "contractAddress": null
    }
  ],
  "libraries": [],
  "pending": [],
  "returns": {},
  "timestamp": 1768398510288,
  "chain": 31337,
  "commit": "a24b38b"
}