{
  "transactions": [
    {
      "hash": "0x60ca453c4d6b2369f91758df82959d3f2d2ae34c9912d572032644fcf531bec0",
      "transactionType": "CREATE",
      "contractName": "Counter",
      "contractAddress": "0x0b306bf915c4d645ff596e518faf3f9669b97016",
      "function": null,
      "arguments": null,
      "transaction": {
        "from": "0xf39fd6e51aad88f6f4ce6ab8827279cfffb92266",
        "gas": "0x364b8",
        "value": "0x0",
        "input": "0x6080604052348015600e575f5ffd5b505f5f81905550610218806100225f395ff3fe608060405234801561000f575f5ffd5b506004361061003f575f3560e01c80633fb5c1cb146100435780638381f58a1461005f578063d09de08a1461007d575b5f5ffd5b61005d6004803603810190610058919061011b565b610087565b005b6100676100c7565b6040516100749190610155565b60405180910390f35b6100856100cc565b005b805f819055507f9ec8254969d1974eac8c74afb0c03595b4ffe0a1d7ad8a7f82ed31b9c8542591816040516100bc9190610155565b60405180910390a150565b5f5481565b5f5f8154809291906100dd9061019b565b9190505550565b5f5ffd5b5f819050919050565b6100fa816100e8565b8114610104575f5ffd5b50565b5f81359050610115816100f1565b92915050565b5f602082840312156101305761012f6100e4565b5b5f61013d84828501610107565b91505092915050565b61014f816100e8565b82525050565b5f6020820190506101685f830184610146565b92915050565b7f4e487b71000000000000000000000000000000000000000000000000000000005f52601160045260245ffd5b5f6101a5826100e8565b91507fffffffffffffffffffffffffffffffffffffffffffffffffffffffffffffffff82036101d7576101d661016e565b5b60018201905091905056fea2646970667358221220e4491ae70924e030e141e0f6214206059167a5e0c97bba602223f2f84819d82c64736f6c63430008210033",
        "nonce": "0xf",
        "chainId": "0x7a69"
      },
      "additionalContracts": [],
      "isFixedGasLimit": false
    },
    {
      "hash": "0x3538c0ea032b7914f37c3a118bdf718c7be89c570aa6949602dc8124a7cdd308",
      "transactionType": "CALL",
      "contractName": "Counter",
      "contractAddress": "0x0b306bf915c4d645ff596e518faf3f9669b97016",
      "function": "setNumber(uint256)",
      "arguments": [
        "10"
      ],
      "transaction": {
        "from": "0xf39fd6e51aad88f6f4ce6ab8827279cfffb92266",
        "to": "0x0b306bf915c4d645ff596e518faf3f9669b97016",
        "gas": "0xf22b",
        "value": "0x0",
        "input": "0x3fb5c1cb000000000000000000000000000000000000000000000000000000000000000a",
        "nonce": "0x10",
        "chainId": "0x7a69"
      },
      "additionalContracts": [],
      "isFixedGasLimit": false
    },
    {
      "hash": "0x821356ff5d29fad293143e6008523127a27d8b44d5c1494de741e1dff3c7e489",
      "transactionType": "CALL",
      "contractName": "Counter",
      "contractAddress": "0x0b306bf915c4d645ff596e518faf3f9669b97016",
      "function": "increment()",
      "arguments": [],
      "transaction": {
        "from": "0xf39fd6e51aad88f6f4ce6ab8827279cfffb92266",
        "to": "0x0b306bf915c4d645ff596e518faf3f9669b97016",
        "gas": "0x8e57",
        "value": "0x0",
        "input": "0xd09de08a",
        "nonce": "0x11",
        "chainId": "0x7a69"
      },
      "additionalContracts": [],
      "isFixedGasLimit": false
    }
  ],
  "receipts": [
    {
      "status": "0x1",
      "cumulativeGasUsed": "0x29c3f",
      "logs": [],
      "logsBloom": "0x00000000000000000000000000000000000000000000000000000000000000000000000000000000000000000000000000000000000000000000000000000000000000000000000000000000000000000000000000000000000000000000000000000000000000000000000000000000000000000000000000000000000000000000000000000000000000000000000000000000000000000000000000000000000000000000000000000000000000000000000000000000000000000000000000000000000000000000000000000000000000000000000000000000000000000000000000000000000000000000000000000000000000000000000000000000",
      "type": "0x2",
      "transactionHash": "0x821356ff5d29fad293143e6008523127a27d8b44d5c1494de741e1dff3c7e489",
      "transactionIndex": "0x0",
      "blockHash": "0x3c65eb67ca3f2bd4c998fddf19e1238e9722619c3724e771c2b84dc2b7f84fa1",
      "blockNumber": "0xf",
      "gasUsed": "0x29c3f",
      "effectiveGasPrice": "0x9527ed6",
      "blobGasPrice": "0x1",
      "from": "0xf39fd6e51aad88f6f4ce6ab8827279cfffb92266",
      "to": null,
      "contractAddress": "0x0b306bf915c4d645ff596e518faf3f9669b97016"
    },
    {
      "status": "0x1",
      "cumulativeGasUsed": "0x34b93",
      "logs": [
        {
          "address": "0x0b306bf915c4d645ff596e518faf3f9669b97016",
          "topics": [
            "0x9ec8254969d1974eac8c74afb0c03595b4ffe0a1d7ad8a7f82ed31b9c8542591"
          ],
          "data": "0x000000000000000000000000000000000000000000000000000000000000000a",
          "blockHash": "0x3c65eb67ca3f2bd4c998fddf19e1238e9722619c3724e771c2b84dc2b7f84fa1",
          "blockNumber": "0xf",
          "blockTimestamp": "0x6967a296",
          "transactionHash": "0x3538c0ea032b7914f37c3a118bdf718c7be89c570aa6949602dc8124a7cdd308",
          "transactionIndex": "0x1",
          "logIndex": "0x0",
          "removed": false
        }
      ],
      "logsBloom": "0x00000000000000001000000000000000000000000000000000000000000000000000000000000000000000000000000000000000000000000000000000000000004000000000000000000000000000000000000000000000000000000000000000000000000000000000000000000000000000000000000000000020000000000000000000000000000000000100000000000000008000000000000000000000000000000000000000000000000000000000000000000000000000000000000000000000000000000000000000000000000000000000000000000000000000000000000000000000000000000000010000000000000000000000000000000000",
      "type": "0x2",
      "transactionHash": "0x3538c0ea032b7914f37c3a118bdf718c7be89c570aa6949602dc8124a7cdd308",
      "transactionIndex": "0x1",
      "blockHash": "0x3c65eb67ca3f2bd4c998fddf19e1238e9722619c3724e771c2b84dc2b7f84fa1",
      "blockNumber": "0xf",
      "gasUsed": "0xaf54",
      "effectiveGasPrice": "0x9527ed6",
      "blobGasPrice": "0x1",
      "from": "0xf39fd6e51aad88f6f4ce6ab8827279cfffb92266",
      "to": "0x0b306bf915c4d645ff596e518faf3f9669b97016",
      "contractAddress": null
    },
    {
      "status": "0x1",
      "cumulativeGasUsed": "0x3b2a1",
      "logs": [],
      "logsBloom": "0x00000000000000000000000000000000000000000000000000000000000000000000000000000000000000000000000000000000000000000000000000000000000000000000000000000000000000000000000000000000000000000000000000000000000000000000000000000000000000000000000000000000000000000000000000000000000000000000000000000000000000000000000000000000000000000000000000000000000000000000000000000000000000000000000000000000000000000000000000000000000000000000000000000000000000000000000000000000000000000000000000000000000000000000000000000000",
      "type": "0x2",
      "transactionHash": "0x60ca453c4d6b2369f91758df82959d3f2d2ae34c9912d572032644fcf531bec0",
      "transactionIndex": "0x2",
      "blockHash": "0x3c65eb67ca3f2bd4c998fddf19e1238e9722619c3724e771c2b84dc2b7f84fa1",
      "blockNumber": "0xf",
      "gasUsed": "0x670e",
      "effectiveGasPrice": "0x9527ed6",
      "blobGasPrice": "0x1",
      "from": "0xf39fd6e51aad88f6f4ce6ab8827279cfffb92266",
      "to": "0x0b306bf915c4d645ff596e518faf3f9669b97016",
      "contractAddress": null
    }
  ],
  "libraries": [],
  "pending": [],
  "returns": {},
  "timestamp": 1768399510075,
  "chain": 31337,
  "commit": "a24b38b"
}