{
  "transactions": [
    {
      "hash": "0xb99ec26f8d4c57c82cec99c7ea961f3f13e0fd1096f0470ab64e019c5b1502a3",
      "transactionType": "CREATE",
      "contractName": "Counter",
      "contractAddress": "0xcf7ed3acca5a467e9e704c703e8d87f634fb0fc9",
      "function": null,
      "arguments": null,
      "transaction": {
        "from": "0xf39fd6e51aad88f6f4ce6ab8827279cfffb92266",
        "gas": "0x364b8",
        "value": "0x0",
        "input": "0x6080604052348015600e575f5ffd5b505f5f81905550610218806100225f395ff3fe608060405234801561000f575f5ffd5b506004361061003f575f3560e01c80633fb5c1cb146100435780638381f58a1461005f578063d09de08a1461007d575b5f5ffd5b61005d6004803603810190610058919061011b565b610087565b005b6100676100c7565b6040516100749190610155565b60405180910390f35b6100856100cc565b005b805f819055507f9ec8254969d1974eac8c74afb0c03595b4ffe0a1d7ad8a7f82ed31b9c8542591816040516100bc9190610155565b60405180910390a150565b5f5481565b5f5f8154809291906100dd9061019b565b9190505550565b5f5ffd5b5f819050919050565b6100fa816100e8565b8114610104575f5ffd5b50565b5f81359050610115816100f1565b92915050565b5f602082840312156101305761012f6100e4565b5b5f61013d84828501610107565b91505092915050565b61014f816100e8565b82525050565b5f6020820190506101685f830184610146565b92915050565b7f4e487b71000000000000000000000000000000000000000000000000000000005f52601160045260245ffd5b5f6101a5826100e8565b91507fffffffffffffffffffffffffffffffffffffffffffffffffffffffffffffffff82036101d7576101d661016e565b5b60018201905091905056fea2646970667358221220e4491ae70924e030e141e0f6214206059167a5e0c97bba602223f2f84819d82c64736f6c63430008210033",
        "nonce": "0x3",
        "chainId": "0x7a69"
      },
      "additionalContracts": [],
      "isFixedGasLimit": false
    },
    {
      "hash": "0xa26c443b5f8b032e8025ca17969e0ecfb5ec9a9943594592ee91f586dd9775ab",
      "transactionType": "CALL",
      "contractName": "Counter",
      "contractAddress": "0xcf7ed3acca5a467e9e704c703e8d87f634fb0fc9",
      "function": "setNumber(uint256)",
      "arguments": [
        "10"
      ],
      "transaction": {
        "from": "0xf39fd6e51aad88f6f4ce6ab8827279cfffb92266",
        "to": "0xcf7ed3acca5a467e9e704c703e8d87f634fb0fc9",
        "gas": "0xf22b",
        "value": "0x0",
        "input": "0x3fb5c1cb000000000000000000000000000000000000000000000000000000000000000a",
        "nonce": "0x4",
        "chainId": "0x7a69"
      },
      "additionalContracts": [],
      "isFixedGasLimit": false
    },
    {
      "hash": "0xc9387ccc30f5b10aa9b7819532a8ed05972453c3e3ad9afe2899b744af0b6256",
      "transactionType": "CALL",
      "contractName": "Counter",
      "contractAddress": "0xcf7ed3acca5a467e9e704c703e8d87f634fb0fc9",
      "function": "increment()",
      "arguments": [],
      "transaction": {
        "from": "0xf39fd6e51aad88f6f4ce6ab8827279cfffb92266",
        "to": "0xcf7ed3acca5a467e9e704c703e8d87f634fb0fc9",
        "gas": "0x8e57",
        "value": "0x0",
        "input": "0xd09de08a",
        "nonce": "0x5",
        "chainId": "0x7a69"
      },
      "additionalContracts": [],
      "isFixedGasLimit": false
    }
  ],
  "receipts": [
    {
      "status": "0x1",
      "cumulativeGasUsed": "0x29c3f",
      "logs": [],
      "logsBloom": "0x00000000000000000000000000000000000000000000000000000000000000000000000000000000000000000000000000000000000000000000000000000000000000000000000000000000000000000000000000000000000000000000000000000000000000000000000000000000000000000000000000000000000000000000000000000000000000000000000000000000000000000000000000000000000000000000000000000000000000000000000000000000000000000000000000000000000000000000000000000000000000000000000000000000000000000000000000000000000000000000000000000000000000000000000000000000",
      "type": "0x2",
      "transactionHash": "0xb99ec26f8d4c57c82cec99c7ea961f3f13e0fd1096f0470ab64e019c5b1502a3",
      "transactionIndex": "0x0",
      "blockHash": "0xdb05474851b3a1122b5a098b40b69cef61bfc7218b564466f9a7dd69a3494fcc",
      "blockNumber": "0x4",
      "gasUsed": "0x29c3f",
      "effectiveGasPrice": "0x28203dd5",
      "blobGasPrice": "0x1",
      "from": "0xf39fd6e51aad88f6f4ce6ab8827279cfffb92266",
      "to": null,
      "contractAddress": "0xcf7ed3acca5a467e9e704c703e8d87f634fb0fc9"
    },
    {
      "status": "0x1",
      "cumulativeGasUsed": "0xaf54",
      "logs": [
        {
          "address": "0xcf7ed3acca5a467e9e704c703e8d87f634fb0fc9",
          "topics": [
            "0x9ec8254969d1974eac8c74afb0c03595b4ffe0a1d7ad8a7f82ed31b9c8542591"
          ],
          "data": "0x000000000000000000000000000000000000000000000000000000000000000a",
          "blockHash": "0x3bb23656441f147f9db384a6217aa8a66c89f3e5c54fc11cefd59c38924852db",
          "blockNumber": "0x5",
          "blockTimestamp": "0x69679dd4",
          "transactionHash": "0xa26c443b5f8b032e8025ca17969e0ecfb5ec9a9943594592ee91f586dd9775ab",
          "transactionIndex": "0x0",
          "logIndex": "0x0",
          "removed": false
        }
      ],
      "logsBloom": "0x00000000000000000000000000000000000000000000000000000000000000000000000000000000000000000000080000000000000000000000000000000001004000000000000000000000000000000000000000000000000000000000000000000000000000000000000000000000000000000000000000000020000000000000000008000000000000000100000000000000000000000000000000000000000000000000000000000000000000000000000000000000000000000000000000000000000000000000000000000000000000000000000000000000000000000000000000000000000000000000000000000000000000000000000000000000",
      "type": "0x2",
      "transactionHash": "0xa26c443b5f8b032e8025ca17969e0ecfb5ec9a9943594592ee91f586dd9775ab",
      "transactionIndex": "0x0",
      "blockHash": "0x3bb23656441f147f9db384a6217aa8a66c89f3e5c54fc11cefd59c38924852db",
      "blockNumber": "0x5",
      "gasUsed": "0xaf54",
      "effectiveGasPrice": "0x232adafa",
      "blobGasPrice": "0x1",
      "from": "0xf39fd6e51aad88f6f4ce6ab8827279cfffb92266",
      "to": "0xcf7ed3acca5a467e9e704c703e8d87f634fb0fc9",
      "contractAddress": null
    },
    {
      "status": "0x1",
      "cumulativeGasUsed": "0x670e",
      "logs": [],
      "logsBloom": "0x00000000000000000000000000000000000000000000000000000000000000000000000000000000000000000000000000000000000000000000000000000000000000000000000000000000000000000000000000000000000000000000000000000000000000000000000000000000000000000000000000000000000000000000000000000000000000000000000000000000000000000000000000000000000000000000000000000000000000000000000000000000000000000000000000000000000000000000000000000000000000000000000000000000000000000000000000000000000000000000000000000000000000000000000000000000",
      "type": "0x2",
      "transactionHash": "0xc9387ccc30f5b10aa9b7819532a8ed05972453c3e3ad9afe2899b744af0b6256",
      "transactionIndex": "0x0",
      "blockHash": "0x6c03e27f973a0097276fc16269970e4bf60b7d06ee91a74946c60943f9d57b3c",
      "blockNumber": "0x6",
      "gasUsed": "0x670e",
      "effectiveGasPrice": "0x1ec8dda7",
      "blobGasPrice": "0x1",
      "from": "0xf39fd6e51aad88f6f4ce6ab8827279cfffb92266",
      "to": "0xcf7ed3acca5a467e9e704c703e8d87f634fb0fc9",
      "contractAddress": null
    }
  ],
  "libraries": [],
  "pending": [],
  "returns": {},
  "timestamp": 1768398292146,
  "chain": 31337,
  "commit": "a24b38b"
}