{
  "transactions": [
    {
      "hash": "0x14e240036a12e41d7f429b3ce39e4a72c8c34c044f41a484dfd4b69ad78c1555",
      "transactionType": "CREATE",
      "contractName": "Counter",
      "contractAddress": "0x8a791620dd6260079bf849dc5567adc3f2fdc318",
      "function": null,
      "arguments": null,
      "transaction": {
        "from": "0xf39fd6e51aad88f6f4ce6ab8827279cfffb92266",
        "gas": "0x364b8",
        "value": "0x0",
        "input": "0x6080604052348015600e575f5ffd5b505f5f81905550610218806100225f395ff3fe608060405234801561000f575f5ffd5b506004361061003f575f3560e01c80633fb5c1cb146100435780638381f58a1461005f578063d09de08a1461007d575b5f5ffd5b61005d6004803603810190610058919061011b565b610087565b005b6100676100c7565b6040516100749190610155565b60405180910390f35b6100856100cc565b005b805f819055507f9ec8254969d1974eac8c74afb0c03595b4ffe0a1d7ad8a7f82ed31b9c8542591816040516100bc9190610155565b60405180910390a150565b5f5481565b5f5f8154809291906100dd9061019b565b9190505550565b5f5ffd5b5f819050919050565b6100fa816100e8565b8114610104575f5ffd5b50565b5f81359050610115816100f1565b92915050565b5f602082840312156101305761012f6100e4565b5b5f61013d84828501610107565b91505092915050565b61014f816100e8565b82525050565b5f6020820190506101685f830184610146565b92915050565b7f4e487b71000000000000000000000000000000000000000000000000000000005f52601160045260245ffd5b5f6101a5826100e8565b91507fffffffffffffffffffffffffffffffffffffffffffffffffffffffffffffffff82036101d7576101d661016e565b5b60018201905091905056fea2646970667358221220e4491ae70924e030e141e0f6214206059167a5e0c97bba602223f2f84819d82c64736f6c63430008210033",
        "nonce": "0x9",
        "chainId": "0x7a69"
      },
      "additionalContracts": [],
      "isFixedGasLimit": false
    },
    {
      "hash": "0x012c3367d0ae5a5ef0784e318f5d7623158d9f8c611b33a45c9b2e7ca0d1f76f",
      "transactionType": "CALL",
      "contractName": "Counter",
      "contractAddress": "0x8a791620dd6260079bf849dc5567adc3f2fdc318",
      "function": "setNumber(uint256)",
      "arguments": [
        "10"
      ],
      "transaction": {
        "from": "0xf39fd6e51aad88f6f4ce6ab8827279cfffb92266",
        "to": "0x8a791620dd6260079bf849dc5567adc3f2fdc318",
        "gas": "0xf22b",
        "value": "0x0",
        "input": "0x3fb5c1cb000000000000000000000000000000000000000000000000000000000000000a",
        "nonce": "0xa",
        "chainId": "0x7a69"
      },
      "additionalContracts": [],
      "isFixedGasLimit": false
    },
    {
      "hash": "0xb08e1faf435410ba59bbb572dd44436f6bcd347d128630d8c6b8c50671bf30ae",
      "transactionType": "CALL",
      "contractName": "Counter",
      "contractAddress": "0x8a791620dd6260079bf849dc5567adc3f2fdc318",
      "function": "increment()",
      "arguments": [],
      "transaction": {
        "from": "0xf39fd6e51aad88f6f4ce6ab8827279cfffb92266",
        "to": "0x8a791620dd6260079bf849dc5567adc3f2fdc318",
        "gas": "0x8e57",
        "value": "0x0",
        "input": "0xd09de08a",
        "nonce": "0xb",
        "chainId": "0x7a69"
      },
      "additionalContracts": [],
      "isFixedGasLimit": false
    }
  ],
  "receipts": [
    {
      "status": "0x1",
      "cumulativeGasUsed": "0x29c3f",
      "logs": [],
      "logsBloom": "0x00000000000000000000000000000000000000000000000000000000000000000000000000000000000000000000000000000000000000000000000000000000000000000000000000000000000000000000000000000000000000000000000000000000000000000000000000000000000000000000000000000000000000000000000000000000000000000000000000000000000000000000000000000000000000000000000000000000000000000000000000000000000000000000000000000000000000000000000000000000000000000000000000000000000000000000000000000000000000000000000000000000000000000000000000000000",
      "type": "0x2",
      "transactionHash": "0x14e240036a12e41d7f429b3ce39e4a72c8c34c044f41a484dfd4b69ad78c1555",
      "transactionIndex": "0x0",
      "blockHash": "0x7365c2830d98f9a16b51ae227734a85d679cc82ff1932ef42387563ce540bd8e",
      "blockNumber": "0xa",
      "gasUsed": "0x29c3f",
      "effectiveGasPrice": "0x12177329",
      "blobGasPrice": "0x1",
      "from": "0xf39fd6e51aad88f6f4ce6ab8827279cfffb92266",
      "to": null,
      "contractAddress": "0x8a791620dd6260079bf849dc5567adc3f2fdc318"
    },
    {
      "status": "0x1",
      "cumulativeGasUsed": "0xaf54",
      "logs": [
        {
          "address": "0x8a791620dd6260079bf849dc5567adc3f2fdc318",
          "topics": [
            "0x9ec8254969d1974eac8c74afb0c03595b4ffe0a1d7ad8a7f82ed31b9c8542591"
          ],
          "data": "0x000000000000000000000000000000000000000000000000000000000000000a",
          "blockHash": "0xe351df2dc5f16ee6a6fb395782ee46f446bd72a114286390a45dff4e3d009259",
          "blockNumber": "0xb",
          "blockTimestamp": "0x6967a23b",
          "transactionHash": "0x012c3367d0ae5a5ef0784e318f5d7623158d9f8c611b33a45c9b2e7ca0d1f76f",
          "transactionIndex": "0x0",
          "logIndex": "0x0",
          "removed": false
        }
      ],
      "logsBloom": "0x00000000000000000000000000000000000000000000000000000000000000000000000000000000000000000000000000000000000000000000000000000000004000000000000000000000000000000000000000000000000000000000000000000000000000000000000000000000000000000000000000000020000000000000000000000000000000000100000000000000000000000000000000000000002000000000000000000000008000000000000000000000000000000000000000000000000000000000000000000000040000000000000000000000000000000000000000000000000000000000000000000000000000000000000000000000",
      "type": "0x2",
      "transactionHash": "0x012c3367d0ae5a5ef0784e318f5d7623158d9f8c611b33a45c9b2e7ca0d1f76f",
      "transactionIndex": "0x0",
      "blockHash": "0xe351df2dc5f16ee6a6fb395782ee46f446bd72a114286390a45dff4e3d009259",
      "blockNumber": "0xb",
      "gasUsed": "0xaf54",
      "effectiveGasPrice": "0xfdb1f06",
      "blobGasPrice": "0x1",
      "from": "0xf39fd6e51aad88f6f4ce6ab8827279cfffb92266",
      "to": "0x8a791620dd6260079bf849dc5567adc3f2fdc318",
      "contractAddress": null
    },
    {
      "status": "0x1",
      "cumulativeGasUsed": "0x670e",
      "logs": [],
      "logsBloom": "0x00000000000000000000000000000000000000000000000000000000000000000000000000000000000000000000000000000000000000000000000000000000000000000000000000000000000000000000000000000000000000000000000000000000000000000000000000000000000000000000000000000000000000000000000000000000000000000000000000000000000000000000000000000000000000000000000000000000000000000000000000000000000000000000000000000000000000000000000000000000000000000000000000000000000000000000000000000000000000000000000000000000000000000000000000000000",
      "type": "0x2",
      "transactionHash": "0xb08e1faf435410ba59bbb572dd44436f6bcd347d128630d8c6b8c50671bf30ae",
      "transactionIndex": "0x0",
      "blockHash": "0x0ade7e99639c8ea33c8e736a23cb96d70fd2766d6b90a8623cd42f68c6988913",
      "blockNumber": "0xc",
      "gasUsed": "0x670e",
      "effectiveGasPrice": "0xde13fd2",
      "blobGasPrice": "0x1",
      "from": "0xf39fd6e51aad88f6f4ce6ab8827279cfffb92266",
      "to": "0x8a791620dd6260079bf849dc5567adc3f2fdc318",
      "contractAddress": null
    }
  ],
  "libraries": [],
  "pending": [],
  "returns": {},
  "timestamp": 1768399420054,
  "chain": 31337,
  "commit": "a24b38b"
}