{
  "transactions": [
    {
      "hash": "0x2ff3c94e00320be2debc5134bf6f77d28bd8ae199c374124cf4f251a34f337f5",
      "transactionType": "CREATE",
      "contractName": "Counter",
      "contractAddress": "0x959922be3caee4b8cd9a407cc3ac1c251c2007b1",
      "function": null,
      "arguments": null,
      "transaction": {
        "from": "0xf39fd6e51aad88f6f4ce6ab8827279cfffb92266",
        "gas": "0x364b8",
        "value": "0x0",
        "input": "0x6080604052348015600e575f5ffd5b505f5f81905550610218806100225f395ff3fe608060405234801561000f575f5ffd5b506004361061003f575f3560e01c80633fb5c1cb146100435780638381f58a1461005f578063d09de08a1461007d575b5f5ffd5b61005d6004803603810190610058919061011b565b610087565b005b6100676100c7565b6040516100749190610155565b60405180910390f35b6100856100cc565b005b805f819055507f9ec8254969d1974eac8c74afb0c03595b4ffe0a1d7ad8a7f82ed31b9c8542591816040516100bc9190610155565b60405180910390a150565b5f5481565b5f5f8154809291906100dd9061019b565b9190505550565b5f5ffd5b5f819050919050565b6100fa816100e8565b8114610104575f5ffd5b50565b5f81359050610115816100f1565b92915050565b5f602082840312156101305761012f6100e4565b5b5f61013d84828501610107565b91505092915050565b61014f816100e8565b82525050565b5f6020820190506101685f830184610146565b92915050565b7f4e487b71000000000000000000000000000000000000000000000000000000005f52601160045260245ffd5b5f6101a5826100e8565b91507fffffffffffffffffffffffffffffffffffffffffffffffffffffffffffffffff82036101d7576101d661016e565b5b60018201905091905056fea264697066735822122039c09d3845e56f1dec635407f123355eed679896a0a6d5cdd77454b74793b7e564736f6c63430008210033",
        "nonce": "0x10",
        "chainId": "0x7a69"
      },
      "additionalContracts": [],
      "isFixedGasLimit": false
    },
    {
      "hash": "0xea7ab876a2fa95c762026e762d414a88a879a04a493311c3531f31b95a51d72f",
      "transactionType": "CALL",
      "contractName": "Counter",
      "contractAddress": "0x959922be3caee4b8cd9a407cc3ac1c251c2007b1",
      "function": "setNumber(uint256)",
      "arguments": [
        "10"
      ],
      "transaction": {
        "from": "0xf39fd6e51aad88f6f4ce6ab8827279cfffb92266",
        "to": "0x959922be3caee4b8cd9a407cc3ac1c251c2007b1",
        "gas": "0xf22b",
        "value": "0x0",
        "input": "0x3fb5c1cb000000000000000000000000000000000000000000000000000000000000000a",
        "nonce": "0x11",
        "chainId": "0x7a69"
      },
      "additionalContracts": [],
      "isFixedGasLimit": false
    },
    {
      "hash": "0x532cf4a38dc25504daaab96129e92cd7a16721c5453885c64d3e77a74294351a",
      "transactionType": "CALL",
      "contractName": "Counter",
      "contractAddress": "0x959922be3caee4b8cd9a407cc3ac1c251c2007b1",
      "function": "increment()",
      "arguments": [],
      "transaction": {
        "from": "0xf39fd6e51aad88f6f4ce6ab8827279cfffb92266",
        "to": "0x959922be3caee4b8cd9a407cc3ac1c251c2007b1",
        "gas": "0x8e57",
        "value": "0x0",
        "input": "0xd09de08a",
        "nonce": "0x12",
        "chainId": "0x7a69"
      },
      "additionalContracts": [],
      "isFixedGasLimit": false
    }
  ],
  "receipts": [
    {
      "status": "0x1",
      "cumulativeGasUsed": "0x29c3f",
      "logs": [],
      "logsBloom": "0x00000000000000000000000000000000000000000000000000000000000000000000000000000000000000000000000000000000000000000000000000000000000000000000000000000000000000000000000000000000000000000000000000000000000000000000000000000000000000000000000000000000000000000000000000000000000000000000000000000000000000000000000000000000000000000000000000000000000000000000000000000000000000000000000000000000000000000000000000000000000000000000000000000000000000000000000000000000000000000000000000000000000000000000000000000000",
      "type": "0x2",
      "transactionHash": "0x2ff3c94e00320be2debc5134bf6f77d28bd8ae199c374124cf4f251a34f337f5",
      "transactionIndex": "0x0",
      "blockHash": "0x9fc2e3e0f120ddae3f4f8813f179f5ad6dd35693b2a8c836cbcee67660f3a668",
      "blockNumber": "0x12",
      "gasUsed": "0x29c3f",
      "effectiveGasPrice": "0x7d76c02d",
      "blobGasPrice": "0x1",
      "from": "0xf39fd6e51aad88f6f4ce6ab8827279cfffb92266",
      "to": null,
      "contractAddress": "0x959922be3caee4b8cd9a407cc3ac1c251c2007b1"
    },
    {
      "status": "0x1",
      "cumulativeGasUsed": "0xaf54",
      "logs": [
        {
          "address": "0x959922be3caee4b8cd9a407cc3ac1c251c2007b1",
          "topics": [
            "0x9ec8254969d1974eac8c74afb0c03595b4ffe0a1d7ad8a7f82ed31b9c8542591"
          ],
          "data": "0x000000000000000000000000000000000000000000000000000000000000000a",
          "blockHash": "0x7880311b479d395f3398a728b9b2b1a2e4e182b163673c74351f18a9e297d120",
          "blockNumber": "0x13",
          "blockTimestamp": "0x6980a65d",
          "transactionHash": "0xea7ab876a2fa95c762026e762d414a88a879a04a493311c3531f31b95a51d72f",
          "transactionIndex": "0x0",
          "logIndex": "0x0",
          "removed": false
        }
      ],
      "logsBloom": "0x00000000000000000000000000000000000000000000000000000000000000000000000000000000000000000000000000000000000000000000000000000000004000000000000000000000000000000000000000000000000000000000000000000000000000000020000000000000000000000000000000000020000000000000000000000000000000000100000000000000000000000000000000000000000000000000000000200000000000000000000000000000000000000000000000000000000000000000000000000000000000000000000000000000000000000000000000000000010000000000000000000000000000000000000000000000",
      "type": "0x2",
      "transactionHash": "0xea7ab876a2fa95c762026e762d414a88a879a04a493311c3531f31b95a51d72f",
      "transactionIndex": "0x0",
      "blockHash": "0x7880311b479d395f3398a728b9b2b1a2e4e182b163673c74351f18a9e297d120",
      "blockNumber": "0x13",
      "gasUsed": "0xaf54",
      "effectiveGasPrice": "0x7cb0e302",
      "blobGasPrice": "0x1",
      "from": "0xf39fd6e51aad88f6f4ce6ab8827279cfffb92266",
      "to": "0x959922be3caee4b8cd9a407cc3ac1c251c2007b1",
      "contractAddress": null
    },
    {
      "status": "0x1",
      "cumulativeGasUsed": "0x670e",
      "logs": [],
      "logsBloom": "0x00000000000000000000000000000000000000000000000000000000000000000000000000000000000000000000000000000000000000000000000000000000000000000000000000000000000000000000000000000000000000000000000000000000000000000000000000000000000000000000000000000000000000000000000000000000000000000000000000000000000000000000000000000000000000000000000000000000000000000000000000000000000000000000000000000000000000000000000000000000000000000000000000000000000000000000000000000000000000000000000000000000000000000000000000000000",
      "type": "0x2",
      "transactionHash": "0x532cf4a38dc25504daaab96129e92cd7a16721c5453885c64d3e77a74294351a",
      "transactionIndex": "0x0",
      "blockHash": "0x49c2ae0d3ba4e806dc1510fa2ab68f6608a4faccf8456e7e343b06204daa78d4",
      "blockNumber": "0x14",
      "gasUsed": "0x670e",
      "effectiveGasPrice": "0x7c01ff81",
      "blobGasPrice": "0x1",
      "from": "0xf39fd6e51aad88f6f4ce6ab8827279cfffb92266",
      "to": "0x959922be3caee4b8cd9a407cc3ac1c251c2007b1",
      "contractAddress": null
    }
  ],
  "libraries": [],
  "pending": [],
  "returns": {},
  "timestamp": 1770038877630,
  "chain": 31337,
  "commit": "13dd8ef"
}